:100000000C942A000C9434000C9434000C943400AA
:100010000C9434000C9434000C9434000C94340090
:100020000C9434000C9434000C9434000C94340080
:100030000C9434000C9434000C9434000C94340070
:100040000C9434000C9434000C9434000C94340060
:100050000C94340011241FBECFE5D4E0DEBFCDBF29
:100060000E9436000C9447000C940000A69AAD9AAA
:100070009D9B0BC0AE982FEF81EE94E02150804005
:100080009040E1F700C00000F3CFAE9AF4CFF894AF
:02009000FFCFA0
:00000001FF
