:100000000C942A001895000018950000189500001F
:10001000189500001895000018950000189500002C
:10002000189500001895000018950000189500001C
:10003000189500001895000018950000189500000C
:1000400018950000189500001895000018950000FC
:10005000189500008FE58DBFC8E3E0E24E2E84E0E6
:100060008EBFD4E0F4E05F2EA89584B7082E877F7A
:1000700084BF88E1992781BD91BDEEEFF3E0A0E652
:10008000B0E088278D933197E9F76624A69AAD9A58
:100090009D9B0C944E00AE980C944F00AE9A0C941D
:1000A0004800F894FFCF3197F1F70895689462F80B
:0800B0000895E89462F8089538
:00000001FF
